{
  "_format": "hh-sol-artifact-1",
  "contractName": "CarbonCreditToken",
  "sourceName": "contracts/CarbonCreditToken.sol",
  "abi": [
    {
      "inputs": [],
      "stateMutability": "nonpayable",
      "type": "constructor"
    },
    {
      "inputs": [
        {
          "internalType": "address",
          "name": "spender",
          "type": "address"
        },
        {
          "internalType": "uint256",
          "name": "allowance",
          "type": "uint256"
        },
        {
          "internalType": "uint256",
          "name": "needed",
          "type": "uint256"
        }
      ],
      "name": "ERC20InsufficientAllowance",
      "type": "error"
    },
    {
      "inputs": [
        {
          "internalType": "address",
          "name": "sender",
          "type": "address"
        },
        {
          "internalType": "uint256",
          "name": "balance",
          "type": "uint256"
        },
        {
          "internalType": "uint256",
          "name": "needed",
          "type": "uint256"
        }
      ],
      "name": "ERC20InsufficientBalance",
      "type": "error"
    },
    {
      "inputs": [
        {
          "internalType": "address",
          "name": "approver",
          "type": "address"
        }
      ],
      "name": "ERC20InvalidApprover",
      "type": "error"
    },
    {
      "inputs": [
        {
          "internalType": "address",
          "name": "receiver",
          "type": "address"
        }
      ],
      "name": "ERC20InvalidReceiver",
      "type": "error"
    },
    {
      "inputs": [
        {
          "internalType": "address",
          "name": "sender",
          "type": "address"
        }
      ],
      "name": "ERC20InvalidSender",
      "type": "error"
    },
    {
      "inputs": [
        {
          "internalType": "address",
          "name": "spender",
          "type": "address"
        }
      ],
      "name": "ERC20InvalidSpender",
      "type": "error"
    },
    {
      "inputs": [
        {
          "internalType": "address",
          "name": "owner",
          "type": "address"
        }
      ],
      "name": "OwnableInvalidOwner",
      "type": "error"
    },
    {
      "inputs": [
        {
          "internalType": "address",
          "name": "account",
          "type": "address"
        }
      ],
      "name": "OwnableUnauthorizedAccount",
      "type": "error"
    },
    {
      "anonymous": false,
      "inputs": [
        {
          "indexed": true,
          "internalType": "address",
          "name": "owner",
          "type": "address"
        },
        {
          "indexed": true,
          "internalType": "address",
          "name": "spender",
          "type": "address"
        },
        {
          "indexed": false,
          "internalType": "uint256",
          "name": "value",
          "type": "uint256"
        }
      ],
      "name": "Approval",
      "type": "event"
    },
    {
      "anonymous": false,
      "inputs": [
        {
          "indexed": true,
          "internalType": "address",
          "name": "minter",
          "type": "address"
        },
        {
          "indexed": false,
          "internalType": "bool",
          "name": "status",
          "type": "bool"
        }
      ],
      "name": "MinterSet",
      "type": "event"
    },
    {
      "anonymous": false,
      "inputs": [
        {
          "indexed": true,
          "internalType": "address",
          "name": "previousOwner",
          "type": "address"
        },
        {
          "indexed": true,
          "internalType": "address",
          "name": "newOwner",
          "type": "address"
        }
      ],
      "name": "OwnershipTransferred",
      "type": "event"
    },
    {
      "anonymous": false,
      "inputs": [
        {
          "indexed": true,
          "internalType": "address",
          "name": "from",
          "type": "address"
        },
        {
          "indexed": false,
          "internalType": "uint256",
          "name": "amount",
          "type": "uint256"
        }
      ],
      "name": "TokensBurned",
      "type": "event"
    },
    {
      "anonymous": false,
      "inputs": [
        {
          "indexed": true,
          "internalType": "address",
          "name": "to",
          "type": "address"
        },
        {
          "indexed": false,
          "internalType": "uint256",
          "name": "amount",
          "type": "uint256"
        }
      ],
      "name": "TokensMinted",
      "type": "event"
    },
    {
      "anonymous": false,
      "inputs": [
        {
          "indexed": true,
          "internalType": "address",
          "name": "from",
          "type": "address"
        },
        {
          "indexed": true,
          "internalType": "address",
          "name": "to",
          "type": "address"
        },
        {
          "indexed": false,
          "internalType": "uint256",
          "name": "value",
          "type": "uint256"
        }
      ],
      "name": "Transfer",
      "type": "event"
    },
    {
      "inputs": [
        {
          "internalType": "address",
          "name": "owner",
          "type": "address"
        },
        {
          "internalType": "address",
          "name": "spender",
          "type": "address"
        }
      ],
      "name": "allowance",
      "outputs": [
        {
          "internalType": "uint256",
          "name": "",
          "type": "uint256"
        }
      ],
      "stateMutability": "view",
      "type": "function"
    },
    {
      "inputs": [
        {
          "internalType": "address",
          "name": "spender",
          "type": "address"
        },
        {
          "internalType": "uint256",
          "name": "value",
          "type": "uint256"
        }
      ],
      "name": "approve",
      "outputs": [
        {
          "internalType": "bool",
          "name": "",
          "type": "bool"
        }
      ],
      "stateMutability": "nonpayable",
      "type": "function"
    },
    {
      "inputs": [
        {
          "internalType": "address",
          "name": "account",
          "type": "address"
        }
      ],
      "name": "balanceOf",
      "outputs": [
        {
          "internalType": "uint256",
          "name": "",
          "type": "uint256"
        }
      ],
      "stateMutability": "view",
      "type": "function"
    },
    {
      "inputs": [
        {
          "internalType": "address",
          "name": "from",
          "type": "address"
        },
        {
          "internalType": "uint256",
          "name": "amount",
          "type": "uint256"
        }
      ],
      "name": "burn",
      "outputs": [],
      "stateMutability": "nonpayable",
      "type": "function"
    },
    {
      "inputs": [],
      "name": "decimals",
      "outputs": [
        {
          "internalType": "uint8",
          "name": "",
          "type": "uint8"
        }
      ],
      "stateMutability": "view",
      "type": "function"
    },
    {
      "inputs": [
        {
          "internalType": "address",
          "name": "to",
          "type": "address"
        },
        {
          "internalType": "uint256",
          "name": "amount",
          "type": "uint256"
        }
      ],
      "name": "mint",
      "outputs": [],
      "stateMutability": "nonpayable",
      "type": "function"
    },
    {
      "inputs": [
        {
          "internalType": "address",
          "name": "",
          "type": "address"
        }
      ],
      "name": "minters",
      "outputs": [
        {
          "internalType": "bool",
          "name": "",
          "type": "bool"
        }
      ],
      "stateMutability": "view",
      "type": "function"
    },
    {
      "inputs": [],
      "name": "name",
      "outputs": [
        {
          "internalType": "string",
          "name": "",
          "type": "string"
        }
      ],
      "stateMutability": "view",
      "type": "function"
    },
    {
      "inputs": [],
      "name": "owner",
      "outputs": [
        {
          "internalType": "address",
          "name": "",
          "type": "address"
        }
      ],
      "stateMutability": "view",
      "type": "function"
    },
    {
      "inputs": [],
      "name": "renounceOwnership",
      "outputs": [],
      "stateMutability": "nonpayable",
      "type": "function"
    },
    {
      "inputs": [
        {
          "internalType": "address",
          "name": "_minter",
          "type": "address"
        },
        {
          "internalType": "bool",
          "name": "_status",
          "type": "bool"
        }
      ],
      "name": "setMinter",
      "outputs": [],
      "stateMutability": "nonpayable",
      "type": "function"
    },
    {
      "inputs": [],
      "name": "symbol",
      "outputs": [
        {
          "internalType": "string",
          "name": "",
          "type": "string"
        }
      ],
      "stateMutability": "view",
      "type": "function"
    },
    {
      "inputs": [],
      "name": "totalSupply",
      "outputs": [
        {
          "internalType": "uint256",
          "name": "",
          "type": "uint256"
        }
      ],
      "stateMutability": "view",
      "type": "function"
    },
    {
      "inputs": [
        {
          "internalType": "address",
          "name": "to",
          "type": "address"
        },
        {
          "internalType": "uint256",
          "name": "value",
          "type": "uint256"
        }
      ],
      "name": "transfer",
      "outputs": [
        {
          "internalType": "bool",
          "name": "",
          "type": "bool"
        }
      ],
      "stateMutability": "nonpayable",
      "type": "function"
    },
    {
      "inputs": [
        {
          "internalType": "address",
          "name": "from",
          "type": "address"
        },
        {
          "internalType": "address",
          "name": "to",
          "type": "address"
        },
        {
          "internalType": "uint256",
          "name": "value",
          "type": "uint256"
        }
      ],
      "name": "transferFrom",
      "outputs": [
        {
          "internalType": "bool",
          "name": "",
          "type": "bool"
        }
      ],
      "stateMutability": "nonpayable",
      "type": "function"
    },
    {
      "inputs": [
        {
          "internalType": "address",
          "name": "newOwner",
          "type": "address"
        }
      ],
      "name": "transferOwnership",
      "outputs": [],
      "stateMutability": "nonpayable",
      "type": "function"
    }
  ],
  "bytecode": "0x60806040523480156200001157600080fd5b50336040518060400160405280601181526020017f436172626f6e437265646974546f6b656e0000000000000000000000000000008152506040518060400160405280600381526020017f4343540000000000000000000000000000000000000000000000000000000000815250816003908162000090919062000472565b508060049081620000a2919062000472565b505050600073ffffffffffffffffffffffffffffffffffffffff168173ffffffffffffffffffffffffffffffffffffffff16036200011a5760006040517f1e4fbdf70000000000000000000000000000000000000000000000000000000081526004016200011191906200059e565b60405180910390fd5b6200012b816200013260201b60201c565b50620005bb565b6000600560009054906101000a900473ffffffffffffffffffffffffffffffffffffffff16905081600560006101000a81548173ffffffffffffffffffffffffffffffffffffffff021916908373ffffffffffffffffffffffffffffffffffffffff1602179055508173ffffffffffffffffffffffffffffffffffffffff168173ffffffffffffffffffffffffffffffffffffffff167f8be0079c531659141344cd1fd0a4f28419497f9722a3daafe3b4186f6b6457e060405160405180910390a35050565b600081519050919050565b7f4e487b7100000000000000000000000000000000000000000000000000000000600052604160045260246000fd5b7f4e487b7100000000000000000000000000000000000000000000000000000000600052602260045260246000fd5b600060028204905060018216806200027a57607f821691505b60208210810362000290576200028f62000232565b5b50919050565b60008190508160005260206000209050919050565b60006020601f8301049050919050565b600082821b905092915050565b600060088302620002fa7fffffffffffffffffffffffffffffffffffffffffffffffffffffffffffffffff82620002bb565b620003068683620002bb565b95508019841693508086168417925050509392505050565b6000819050919050565b6000819050919050565b6000620003536200034d62000347846200031e565b62000328565b6200031e565b9050919050565b6000819050919050565b6200036f8362000332565b620003876200037e826200035a565b848454620002c8565b825550505050565b600090565b6200039e6200038f565b620003ab81848462000364565b505050565b5b81811015620003d357620003c760008262000394565b600181019050620003b1565b5050565b601f8211156200042257620003ec8162000296565b620003f784620002ab565b8101602085101562000407578190505b6200041f6200041685620002ab565b830182620003b0565b50505b505050565b600082821c905092915050565b6000620004476000198460080262000427565b1980831691505092915050565b600062000462838362000434565b9150826002028217905092915050565b6200047d82620001f8565b67ffffffffffffffff81111562000499576200049862000203565b5b620004a5825462000261565b620004b2828285620003d7565b600060209050601f831160018114620004ea5760008415620004d5578287015190505b620004e1858262000454565b86555062000551565b601f198416620004fa8662000296565b60005b828110156200052457848901518255600182019150602085019450602081019050620004fd565b8683101562000544578489015162000540601f89168262000434565b8355505b6001600288020188555050505b505050505050565b600073ffffffffffffffffffffffffffffffffffffffff82169050919050565b6000620005868262000559565b9050919050565b620005988162000579565b82525050565b6000602082019050620005b560008301846200058d565b92915050565b61167080620005cb6000396000f3fe608060405234801561001057600080fd5b50600436106101005760003560e01c80638da5cb5b11610097578063cf456ae711610066578063cf456ae71461029d578063dd62ed3e146102b9578063f2fde38b146102e9578063f46eccc41461030557610100565b80638da5cb5b1461021557806395d89b41146102335780639dc29fac14610251578063a9059cbb1461026d57610100565b8063313ce567116100d3578063313ce567146101a157806340c10f19146101bf57806370a08231146101db578063715018a61461020b57610100565b806306fdde0314610105578063095ea7b31461012357806318160ddd1461015357806323b872dd14610171575b600080fd5b61010d610335565b60405161011a9190611180565b60405180910390f35b61013d6004803603810190610138919061123b565b6103c7565b60405161014a9190611296565b60405180910390f35b61015b6103ea565b60405161016891906112c0565b60405180910390f35b61018b600480360381019061018691906112db565b6103f4565b6040516101989190611296565b60405180910390f35b6101a9610423565b6040516101b6919061134a565b60405180910390f35b6101d960048036038101906101d4919061123b565b61042c565b005b6101f560048036038101906101f09190611365565b610514565b60405161020291906112c0565b60405180910390f35b61021361055c565b005b61021d610570565b60405161022a91906113a1565b60405180910390f35b61023b61059a565b6040516102489190611180565b60405180910390f35b61026b6004803603810190610266919061123b565b61062c565b005b6102876004803603810190610282919061123b565b610690565b6040516102949190611296565b60405180910390f35b6102b760048036038101906102b291906113e8565b6106b3565b005b6102d360048036038101906102ce9190611428565b6107d3565b6040516102e091906112c0565b60405180910390f35b61030360048036038101906102fe9190611365565b61085a565b005b61031f600480360381019061031a9190611365565b6108e0565b60405161032c9190611296565b60405180910390f35b60606003805461034490611497565b80601f016020809104026020016040519081016040528092919081815260200182805461037090611497565b80156103bd5780601f10610392576101008083540402835291602001916103bd565b820191906000526020600020905b8154815290600101906020018083116103a057829003601f168201915b5050505050905090565b6000806103d2610900565b90506103df818585610908565b600191505092915050565b6000600254905090565b6000806103ff610900565b905061040c85828561091a565b6104178585856109af565b60019150509392505050565b60006012905090565b600660003373ffffffffffffffffffffffffffffffffffffffff1673ffffffffffffffffffffffffffffffffffffffff16815260200190815260200160002060009054906101000a900460ff166104b8576040517f08c379a00000000000000000000000000000000000000000000000000000000081526004016104af90611514565b60405180910390fd5b6104c28282610aa3565b8173ffffffffffffffffffffffffffffffffffffffff167f3f2c9d57c068687834f0de942a9babb9e5acab57d516d3480a3c16ee165a42738260405161050891906112c0565b60405180910390a25050565b60008060008373ffffffffffffffffffffffffffffffffffffffff1673ffffffffffffffffffffffffffffffffffffffff168152602001908152602001600020549050919050565b610564610b25565b61056e6000610bac565b565b6000600560009054906101000a900473ffffffffffffffffffffffffffffffffffffffff16905090565b6060600480546105a990611497565b80601f01602080910402602001604051908101604052809291908181526020018280546105d590611497565b80156106225780601f106105f757610100808354040283529160200191610622565b820191906000526020600020905b81548152906001019060200180831161060557829003601f168201915b5050505050905090565b610634610b25565b61063e8282610c72565b8173ffffffffffffffffffffffffffffffffffffffff167ffd38818f5291bf0bb3a2a48aadc06ba8757865d1dabd804585338aab3009dcb68260405161068491906112c0565b60405180910390a25050565b60008061069b610900565b90506106a88185856109af565b600191505092915050565b6106bb610b25565b600073ffffffffffffffffffffffffffffffffffffffff168273ffffffffffffffffffffffffffffffffffffffff160361072a576040517f08c379a000000000000000000000000000000000000000000000000000000000815260040161072190611580565b60405180910390fd5b80600660008473ffffffffffffffffffffffffffffffffffffffff1673ffffffffffffffffffffffffffffffffffffffff16815260200190815260200160002060006101000a81548160ff0219169083151502179055508173ffffffffffffffffffffffffffffffffffffffff167f583b0aa0e528532caf4b907c11d7a8158a122fe2a6fb80cd9b09776ebea8d92d826040516107c79190611296565b60405180910390a25050565b6000600160008473ffffffffffffffffffffffffffffffffffffffff1673ffffffffffffffffffffffffffffffffffffffff16815260200190815260200160002060008373ffffffffffffffffffffffffffffffffffffffff1673ffffffffffffffffffffffffffffffffffffffff16815260200190815260200160002054905092915050565b610862610b25565b600073ffffffffffffffffffffffffffffffffffffffff168173ffffffffffffffffffffffffffffffffffffffff16036108d45760006040517f1e4fbdf70000000000000000000000000000000000000000000000000000000081526004016108cb91906113a1565b60405180910390fd5b6108dd81610bac565b50565b60066020528060005260406000206000915054906101000a900460ff1681565b600033905090565b6109158383836001610cf4565b505050565b600061092684846107d3565b90507fffffffffffffffffffffffffffffffffffffffffffffffffffffffffffffffff8110156109a95781811015610999578281836040517ffb8f41b2000000000000000000000000000000000000000000000000000000008152600401610990939291906115a0565b60405180910390fd5b6109a884848484036000610cf4565b5b50505050565b600073ffffffffffffffffffffffffffffffffffffffff168373ffffffffffffffffffffffffffffffffffffffff1603610a215760006040517f96c6fd1e000000000000000000000000000000000000000000000000000000008152600401610a1891906113a1565b60405180910390fd5b600073ffffffffffffffffffffffffffffffffffffffff168273ffffffffffffffffffffffffffffffffffffffff1603610a935760006040517fec442f05000000000000000000000000000000000000000000000000000000008152600401610a8a91906113a1565b60405180910390fd5b610a9e838383610ecb565b505050565b600073ffffffffffffffffffffffffffffffffffffffff168273ffffffffffffffffffffffffffffffffffffffff1603610b155760006040517fec442f05000000000000000000000000000000000000000000000000000000008152600401610b0c91906113a1565b60405180910390fd5b610b2160008383610ecb565b5050565b610b2d610900565b73ffffffffffffffffffffffffffffffffffffffff16610b4b610570565b73ffffffffffffffffffffffffffffffffffffffff1614610baa57610b6e610900565b6040517f118cdaa7000000000000000000000000000000000000000000000000000000008152600401610ba191906113a1565b60405180910390fd5b565b6000600560009054906101000a900473ffffffffffffffffffffffffffffffffffffffff16905081600560006101000a81548173ffffffffffffffffffffffffffffffffffffffff021916908373ffffffffffffffffffffffffffffffffffffffff1602179055508173ffffffffffffffffffffffffffffffffffffffff168173ffffffffffffffffffffffffffffffffffffffff167f8be0079c531659141344cd1fd0a4f28419497f9722a3daafe3b4186f6b6457e060405160405180910390a35050565b600073ffffffffffffffffffffffffffffffffffffffff168273ffffffffffffffffffffffffffffffffffffffff1603610ce45760006040517f96c6fd1e000000000000000000000000000000000000000000000000000000008152600401610cdb91906113a1565b60405180910390fd5b610cf082600083610ecb565b5050565b600073ffffffffffffffffffffffffffffffffffffffff168473ffffffffffffffffffffffffffffffffffffffff1603610d665760006040517fe602df05000000000000000000000000000000000000000000000000000000008152600401610d5d91906113a1565b60405180910390fd5b600073ffffffffffffffffffffffffffffffffffffffff168373ffffffffffffffffffffffffffffffffffffffff1603610dd85760006040517f94280d62000000000000000000000000000000000000000000000000000000008152600401610dcf91906113a1565b60405180910390fd5b81600160008673ffffffffffffffffffffffffffffffffffffffff1673ffffffffffffffffffffffffffffffffffffffff16815260200190815260200160002060008573ffffffffffffffffffffffffffffffffffffffff1673ffffffffffffffffffffffffffffffffffffffff168152602001908152602001600020819055508015610ec5578273ffffffffffffffffffffffffffffffffffffffff168473ffffffffffffffffffffffffffffffffffffffff167f8c5be1e5ebec7d5bd14f71427d1e84f3dd0314c0f7b2291e5b200ac8c7c3b92584604051610ebc91906112c0565b60405180910390a35b50505050565b600073ffffffffffffffffffffffffffffffffffffffff168373ffffffffffffffffffffffffffffffffffffffff1603610f1d578060026000828254610f119190611606565b92505081905550610ff0565b60008060008573ffffffffffffffffffffffffffffffffffffffff1673ffffffffffffffffffffffffffffffffffffffff16815260200190815260200160002054905081811015610fa9578381836040517fe450d38c000000000000000000000000000000000000000000000000000000008152600401610fa0939291906115a0565b60405180910390fd5b8181036000808673ffffffffffffffffffffffffffffffffffffffff1673ffffffffffffffffffffffffffffffffffffffff16815260200190815260200160002081905550505b600073ffffffffffffffffffffffffffffffffffffffff168273ffffffffffffffffffffffffffffffffffffffff16036110395780600260008282540392505081905550611086565b806000808473ffffffffffffffffffffffffffffffffffffffff1673ffffffffffffffffffffffffffffffffffffffff168152602001908152602001600020600082825401925050819055505b8173ffffffffffffffffffffffffffffffffffffffff168373ffffffffffffffffffffffffffffffffffffffff167fddf252ad1be2c89b69c2b068fc378daa952ba7f163c4a11628f55a4df523b3ef836040516110e391906112c0565b60405180910390a3505050565b600081519050919050565b600082825260208201905092915050565b60005b8381101561112a57808201518184015260208101905061110f565b60008484015250505050565b6000601f19601f8301169050919050565b6000611152826110f0565b61115c81856110fb565b935061116c81856020860161110c565b61117581611136565b840191505092915050565b6000602082019050818103600083015261119a8184611147565b905092915050565b600080fd5b600073ffffffffffffffffffffffffffffffffffffffff82169050919050565b60006111d2826111a7565b9050919050565b6111e2816111c7565b81146111ed57600080fd5b50565b6000813590506111ff816111d9565b92915050565b6000819050919050565b61121881611205565b811461122357600080fd5b50565b6000813590506112358161120f565b92915050565b60008060408385031215611252576112516111a2565b5b6000611260858286016111f0565b925050602061127185828601611226565b9150509250929050565b60008115159050919050565b6112908161127b565b82525050565b60006020820190506112ab6000830184611287565b92915050565b6112ba81611205565b82525050565b60006020820190506112d560008301846112b1565b92915050565b6000806000606084860312156112f4576112f36111a2565b5b6000611302868287016111f0565b9350506020611313868287016111f0565b925050604061132486828701611226565b9150509250925092565b600060ff82169050919050565b6113448161132e565b82525050565b600060208201905061135f600083018461133b565b92915050565b60006020828403121561137b5761137a6111a2565b5b6000611389848285016111f0565b91505092915050565b61139b816111c7565b82525050565b60006020820190506113b66000830184611392565b92915050565b6113c58161127b565b81146113d057600080fd5b50565b6000813590506113e2816113bc565b92915050565b600080604083850312156113ff576113fe6111a2565b5b600061140d858286016111f0565b925050602061141e858286016113d3565b9150509250929050565b6000806040838503121561143f5761143e6111a2565b5b600061144d858286016111f0565b925050602061145e858286016111f0565b9150509250929050565b7f4e487b7100000000000000000000000000000000000000000000000000000000600052602260045260246000fd5b600060028204905060018216806114af57607f821691505b6020821081036114c2576114c1611468565b5b50919050565b7f4e6f7420617574686f72697a6564206d696e7465720000000000000000000000600082015250565b60006114fe6015836110fb565b9150611509826114c8565b602082019050919050565b6000602082019050818103600083015261152d816114f1565b9050919050565b7f5a65726f20616464726573730000000000000000000000000000000000000000600082015250565b600061156a600c836110fb565b915061157582611534565b602082019050919050565b600060208201905081810360008301526115998161155d565b9050919050565b60006060820190506115b56000830186611392565b6115c260208301856112b1565b6115cf60408301846112b1565b949350505050565b7f4e487b7100000000000000000000000000000000000000000000000000000000600052601160045260246000fd5b600061161182611205565b915061161c83611205565b9250828201905080821115611634576116336115d7565b5b9291505056fea26469706673582212202cca433690889e16b34d20443106d45aa1b493a986f06c561a517a918d51dac464736f6c63430008140033",
  "linkReferences": {},
  "deployedLinkReferences": {}
}