{"contracts/Marketplace.sol":{"Marketplace":{"abi":[{"inputs":[{"internalType":"address","name":"tokenAddress","type":"address"}],"stateMutability":"nonpayable","type":"constructor"},{"inputs":[{"internalType":"uint256","name":"listingId","type":"uint256"}],"name":"buyTokens","outputs":[],"stateMutability":"payable","type":"function"},{"inputs":[{"internalType":"uint256","name":"amount","type":"uint256"},{"internalType":"uint256","name":"price","type":"uint256"}],"name":"listTokens","outputs":[],"stateMutability":"nonpayable","type":"function"},{"inputs":[{"internalType":"uint256","name":"","type":"uint256"}],"name":"listings","outputs":[{"internalType":"address","name":"seller","type":"address"},{"internalType":"uint256","name":"amount","type":"uint256"},{"internalType":"uint256","name":"price","type":"uint256"},{"internalType":"bool","name":"active","type":"bool"}],"stateMutability":"view","type":"function"},{"inputs":[],"name":"nextListingId","outputs":[{"internalType":"uint256","name":"","type":"uint256"}],"stateMutability":"view","type":"function"},{"inputs":[],"name":"token","outputs":[{"internalType":"contract CarbonCreditToken","name":"","type":"address"}],"stateMutability":"view","type":"function"}],"evm":{"bytecode":{"linkReferences":{},"object":"608060405234801561001057600080fd5b50604051610ddb380380610ddb833981810160405281019061003291906100db565b806000806101000a81548173ffffffffffffffffffffffffffffffffffffffff021916908373ffffffffffffffffffffffffffffffffffffffff16021790555050610108565b600080fd5b600073ffffffffffffffffffffffffffffffffffffffff82169050919050565b60006100a88261007d565b9050919050565b6100b88161009d565b81146100c357600080fd5b50565b6000815190506100d5816100af565b92915050565b6000602082840312156100f1576100f0610078565b5b60006100ff848285016100c6565b91505092915050565b610cc4806101176000396000f3fe60806040526004361061004a5760003560e01c80633610724e1461004f578063aaccf1ec1461006b578063de74e57b14610096578063e30e5ae9146100d6578063fc0c546a146100ff575b600080fd5b610069600480360381019061006491906106e0565b61012a565b005b34801561007757600080fd5b5061008061037b565b60405161008d919061071c565b60405180910390f35b3480156100a257600080fd5b506100bd60048036038101906100b891906106e0565b610381565b6040516100cd9493929190610793565b60405180910390f35b3480156100e257600080fd5b506100fd60048036038101906100f891906107d8565b6103de565b005b34801561010b57600080fd5b50610114610681565b6040516101219190610877565b60405180910390f35b60006001600083815260200190815260200160002090508060030160009054906101000a900460ff16610192576040517f08c379a0000000000000000000000000000000000000000000000000000000008152600401610189906108ef565b60405180910390fd5b806001015481600201546101a6919061093e565b3410156101e8576040517f08c379a00000000000000000000000000000000000000000000000000000000081526004016101df906109cc565b60405180910390fd5b60008160030160006101000a81548160ff02191690831515021790555060008054906101000a900473ffffffffffffffffffffffffffffffffffffffff1673ffffffffffffffffffffffffffffffffffffffff166323b872dd8260000160009054906101000a900473ffffffffffffffffffffffffffffffffffffffff163384600101546040518463ffffffff1660e01b815260040161028a939291906109ec565b6020604051808303816000875af11580156102a9573d6000803e3d6000fd5b505050506040513d601f19601f820116820180604052508101906102cd9190610a4f565b61030c576040517f08c379a000000000000000000000000000000000000000000000000000000000815260040161030390610ac8565b60405180910390fd5b8060000160009054906101000a900473ffffffffffffffffffffffffffffffffffffffff1673ffffffffffffffffffffffffffffffffffffffff166108fc349081150290604051600060405180830381858888f19350505050158015610376573d6000803e3d6000fd5b505050565b60025481565b60016020528060005260406000206000915090508060000160009054906101000a900473ffffffffffffffffffffffffffffffffffffffff16908060010154908060020154908060030160009054906101000a900460ff16905084565b8160008054906101000a900473ffffffffffffffffffffffffffffffffffffffff1673ffffffffffffffffffffffffffffffffffffffff166370a08231336040518263ffffffff1660e01b81526004016104389190610ae8565b602060405180830381865afa158015610455573d6000803e3d6000fd5b505050506040513d601f19601f820116820180604052508101906104799190610b18565b10156104ba576040517f08c379a00000000000000000000000000000000000000000000000000000000081526004016104b190610b91565b60405180910390fd5b8160008054906101000a900473ffffffffffffffffffffffffffffffffffffffff1673ffffffffffffffffffffffffffffffffffffffff1663dd62ed3e33306040518363ffffffff1660e01b8152600401610516929190610bb1565b602060405180830381865afa158015610533573d6000803e3d6000fd5b505050506040513d601f19601f820116820180604052508101906105579190610b18565b1015610598576040517f08c379a000000000000000000000000000000000000000000000000000000000815260040161058f90610c26565b60405180910390fd5b60405180608001604052803373ffffffffffffffffffffffffffffffffffffffff1681526020018381526020018281526020016001151581525060016000600254815260200190815260200160002060008201518160000160006101000a81548173ffffffffffffffffffffffffffffffffffffffff021916908373ffffffffffffffffffffffffffffffffffffffff160217905550602082015181600101556040820151816002015560608201518160030160006101000a81548160ff0219169083151502179055509050506002600081548092919061067890610c46565b91905055505050565b60008054906101000a900473ffffffffffffffffffffffffffffffffffffffff1681565b600080fd5b6000819050919050565b6106bd816106aa565b81146106c857600080fd5b50565b6000813590506106da816106b4565b92915050565b6000602082840312156106f6576106f56106a5565b5b6000610704848285016106cb565b91505092915050565b610716816106aa565b82525050565b6000602082019050610731600083018461070d565b92915050565b600073ffffffffffffffffffffffffffffffffffffffff82169050919050565b600061076282610737565b9050919050565b61077281610757565b82525050565b60008115159050919050565b61078d81610778565b82525050565b60006080820190506107a86000830187610769565b6107b5602083018661070d565b6107c2604083018561070d565b6107cf6060830184610784565b95945050505050565b600080604083850312156107ef576107ee6106a5565b5b60006107fd858286016106cb565b925050602061080e858286016106cb565b9150509250929050565b6000819050919050565b600061083d61083861083384610737565b610818565b610737565b9050919050565b600061084f82610822565b9050919050565b600061086182610844565b9050919050565b61087181610856565b82525050565b600060208201905061088c6000830184610868565b92915050565b600082825260208201905092915050565b7f496e616374697665206c697374696e6700000000000000000000000000000000600082015250565b60006108d9601083610892565b91506108e4826108a3565b602082019050919050565b60006020820190508181036000830152610908816108cc565b9050919050565b7f4e487b7100000000000000000000000000000000000000000000000000000000600052601160045260246000fd5b6000610949826106aa565b9150610954836106aa565b9250828202610962816106aa565b915082820484148315176109795761097861090f565b5b5092915050565b7f496e73756666696369656e742045544800000000000000000000000000000000600082015250565b60006109b6601083610892565b91506109c182610980565b602082019050919050565b600060208201905081810360008301526109e5816109a9565b9050919050565b6000606082019050610a016000830186610769565b610a0e6020830185610769565b610a1b604083018461070d565b949350505050565b610a2c81610778565b8114610a3757600080fd5b50565b600081519050610a4981610a23565b92915050565b600060208284031215610a6557610a646106a5565b5b6000610a7384828501610a3a565b91505092915050565b7f5472616e73666572206661696c65640000000000000000000000000000000000600082015250565b6000610ab2600f83610892565b9150610abd82610a7c565b602082019050919050565b60006020820190508181036000830152610ae181610aa5565b9050919050565b6000602082019050610afd6000830184610769565b92915050565b600081519050610b12816106b4565b92915050565b600060208284031215610b2e57610b2d6106a5565b5b6000610b3c84828501610b03565b91505092915050565b7f496e73756666696369656e7420746f6b656e7300000000000000000000000000600082015250565b6000610b7b601383610892565b9150610b8682610b45565b602082019050919050565b60006020820190508181036000830152610baa81610b6e565b9050919050565b6000604082019050610bc66000830185610769565b610bd36020830184610769565b9392505050565b7f4e6f7420617070726f7665640000000000000000000000000000000000000000600082015250565b6000610c10600c83610892565b9150610c1b82610bda565b602082019050919050565b60006020820190508181036000830152610c3f81610c03565b9050919050565b6000610c51826106aa565b91507fffffffffffffffffffffffffffffffffffffffffffffffffffffffffffffffff8203610c8357610c8261090f565b5b60018201905091905056fea2646970667358221220a94fe47f880f1fc0c57b29d52264048ff11e965769253d22cf14ffc1c3105bdd64736f6c63430008140033","opcodes":"PUSH1 0x80 PUSH1 0x40 MSTORE CALLVALUE DUP1 ISZERO PUSH2 0x10 JUMPI PUSH1 0x0 DUP1 REVERT JUMPDEST POP PUSH1 0x40 MLOAD PUSH2 0xDDB CODESIZE SUB DUP1 PUSH2 0xDDB DUP4 CODECOPY DUP2 DUP2 ADD PUSH1 0x40 MSTORE DUP2 ADD SWAP1 PUSH2 0x32 SWAP2 SWAP1 PUSH2 0xDB JUMP JUMPDEST DUP1 PUSH1 0x0 DUP1 PUSH2 0x100 EXP DUP2 SLOAD DUP2 PUSH20 0xFFFFFFFFFFFFFFFFFFFFFFFFFFFFFFFFFFFFFFFF MUL NOT AND SWAP1 DUP4 PUSH20 0xFFFFFFFFFFFFFFFFFFFFFFFFFFFFFFFFFFFFFFFF AND MUL OR SWAP1 SSTORE POP POP PUSH2 0x108 JUMP JUMPDEST PUSH1 0x0 DUP1 REVERT JUMPDEST PUSH1 0x0 PUSH20 0xFFFFFFFFFFFFFFFFFFFFFFFFFFFFFFFFFFFFFFFF DUP3 AND SWAP1 POP SWAP2 SWAP1 POP JUMP JUMPDEST PUSH1 0x0 PUSH2 0xA8 DUP3 PUSH2 0x7D JUMP JUMPDEST SWAP1 POP SWAP2 SWAP1 POP JUMP JUMPDEST PUSH2 0xB8 DUP2 PUSH2 0x9D JUMP JUMPDEST DUP2 EQ PUSH2 0xC3 JUMPI PUSH1 0x0 DUP1 REVERT JUMPDEST POP JUMP JUMPDEST PUSH1 0x0 DUP2 MLOAD SWAP1 POP PUSH2 0xD5 DUP2 PUSH2 0xAF JUMP JUMPDEST SWAP3 SWAP2 POP POP JUMP JUMPDEST PUSH1 0x0 PUSH1 0x20 DUP3 DUP5 SUB SLT ISZERO PUSH2 0xF1 JUMPI PUSH2 0xF0 PUSH2 0x78 JUMP JUMPDEST JUMPDEST PUSH1 0x0 PUSH2 0xFF DUP5 DUP3 DUP6 ADD PUSH2 0xC6 JUMP JUMPDEST SWAP2 POP POP SWAP3 SWAP2 POP POP JUMP JUMPDEST PUSH2 0xCC4 DUP1 PUSH2 0x117 PUSH1 0x0 CODECOPY PUSH1 0x0 RETURN INVALID PUSH1 0x80 PUSH1 0x40 MSTORE PUSH1 0x4 CALLDATASIZE LT PUSH2 0x4A JUMPI PUSH1 0x0 CALLDATALOAD PUSH1 0xE0 SHR DUP1 PUSH4 0x3610724E EQ PUSH2 0x4F JUMPI DUP1 PUSH4 0xAACCF1EC EQ PUSH2 0x6B JUMPI DUP1 PUSH4 0xDE74E57B EQ PUSH2 0x96 JUMPI DUP1 PUSH4 0xE30E5AE9 EQ PUSH2 0xD6 JUMPI DUP1 PUSH4 0xFC0C546A EQ PUSH2 0xFF JUMPI JUMPDEST PUSH1 0x0 DUP1 REVERT JUMPDEST PUSH2 0x69 PUSH1 0x4 DUP1 CALLDATASIZE SUB DUP2 ADD SWAP1 PUSH2 0x64 SWAP2 SWAP1 PUSH2 0x6E0 JUMP JUMPDEST PUSH2 0x12A JUMP JUMPDEST STOP JUMPDEST CALLVALUE DUP1 ISZERO PUSH2 0x77 JUMPI PUSH1 0x0 DUP1 REVERT JUMPDEST POP PUSH2 0x80 PUSH2 0x37B JUMP JUMPDEST PUSH1 0x40 MLOAD PUSH2 0x8D SWAP2 SWAP1 PUSH2 0x71C JUMP JUMPDEST PUSH1 0x40 MLOAD DUP1 SWAP2 SUB SWAP1 RETURN JUMPDEST CALLVALUE DUP1 ISZERO PUSH2 0xA2 JUMPI PUSH1 0x0 DUP1 REVERT JUMPDEST POP PUSH2 0xBD PUSH1 0x4 DUP1 CALLDATASIZE SUB DUP2 ADD SWAP1 PUSH2 0xB8 SWAP2 SWAP1 PUSH2 0x6E0 JUMP JUMPDEST PUSH2 0x381 JUMP JUMPDEST PUSH1 0x40 MLOAD PUSH2 0xCD SWAP5 SWAP4 SWAP3 SWAP2 SWAP1 PUSH2 0x793 JUMP JUMPDEST PUSH1 0x40 MLOAD DUP1 SWAP2 SUB SWAP1 RETURN JUMPDEST CALLVALUE DUP1 ISZERO PUSH2 0xE2 JUMPI PUSH1 0x0 DUP1 REVERT JUMPDEST POP PUSH2 0xFD PUSH1 0x4 DUP1 CALLDATASIZE SUB DUP2 ADD SWAP1 PUSH2 0xF8 SWAP2 SWAP1 PUSH2 0x7D8 JUMP JUMPDEST PUSH2 0x3DE JUMP JUMPDEST STOP JUMPDEST CALLVALUE DUP1 ISZERO PUSH2 0x10B JUMPI PUSH1 0x0 DUP1 REVERT JUMPDEST POP PUSH2 0x114 PUSH2 0x681 JUMP JUMPDEST PUSH1 0x40 MLOAD PUSH2 0x121 SWAP2 SWAP1 PUSH2 0x877 JUMP JUMPDEST PUSH1 0x40 MLOAD DUP1 SWAP2 SUB SWAP1 RETURN JUMPDEST PUSH1 0x0 PUSH1 0x1 PUSH1 0x0 DUP4 DUP2 MSTORE PUSH1 0x20 ADD SWAP1 DUP2 MSTORE PUSH1 0x20 ADD PUSH1 0x0 KECCAK256 SWAP1 POP DUP1 PUSH1 0x3 ADD PUSH1 0x0 SWAP1 SLOAD SWAP1 PUSH2 0x100 EXP SWAP1 DIV PUSH1 0xFF AND PUSH2 0x192 JUMPI PUSH1 0x40 MLOAD PUSH32 0x8C379A000000000000000000000000000000000000000000000000000000000 DUP2 MSTORE PUSH1 0x4 ADD PUSH2 0x189 SWAP1 PUSH2 0x8EF JUMP JUMPDEST PUSH1 0x40 MLOAD DUP1 SWAP2 SUB SWAP1 REVERT JUMPDEST DUP1 PUSH1 0x1 ADD SLOAD DUP2 PUSH1 0x2 ADD SLOAD PUSH2 0x1A6 SWAP2 SWAP1 PUSH2 0x93E JUMP JUMPDEST CALLVALUE LT ISZERO PUSH2 0x1E8 JUMPI PUSH1 0x40 MLOAD PUSH32 0x8C379A000000000000000000000000000000000000000000000000000000000 DUP2 MSTORE PUSH1 0x4 ADD PUSH2 0x1DF SWAP1 PUSH2 0x9CC JUMP JUMPDEST PUSH1 0x40 MLOAD DUP1 SWAP2 SUB SWAP1 REVERT JUMPDEST PUSH1 0x0 DUP2 PUSH1 0x3 ADD PUSH1 0x0 PUSH2 0x100 EXP DUP2 SLOAD DUP2 PUSH1 0xFF MUL NOT AND SWAP1 DUP4 ISZERO ISZERO MUL OR SWAP1 SSTORE POP PUSH1 0x0 DUP1 SLOAD SWAP1 PUSH2 0x100 EXP SWAP1 DIV PUSH20 0xFFFFFFFFFFFFFFFFFFFFFFFFFFFFFFFFFFFFFFFF AND PUSH20 0xFFFFFFFFFFFFFFFFFFFFFFFFFFFFFFFFFFFFFFFF AND PUSH4 0x23B872DD DUP3 PUSH1 0x0 ADD PUSH1 0x0 SWAP1 SLOAD SWAP1 PUSH2 0x100 EXP SWAP1 DIV PUSH20 0xFFFFFFFFFFFFFFFFFFFFFFFFFFFFFFFFFFFFFFFF AND CALLER DUP5 PUSH1 0x1 ADD SLOAD PUSH1 0x40 MLOAD DUP5 PUSH4 0xFFFFFFFF AND PUSH1 0xE0 SHL DUP2 MSTORE PUSH1 0x4 ADD PUSH2 0x28A SWAP4 SWAP3 SWAP2 SWAP1 PUSH2 0x9EC JUMP JUMPDEST PUSH1 0x20 PUSH1 0x40 MLOAD DUP1 DUP4 SUB DUP2 PUSH1 0x0 DUP8 GAS CALL ISZERO DUP1 ISZERO PUSH2 0x2A9 JUMPI RETURNDATASIZE PUSH1 0x0 DUP1 RETURNDATACOPY RETURNDATASIZE PUSH1 0x0 REVERT JUMPDEST POP POP POP POP PUSH1 0x40 MLOAD RETURNDATASIZE PUSH1 0x1F NOT PUSH1 0x1F DUP3 ADD AND DUP3 ADD DUP1 PUSH1 0x40 MSTORE POP DUP2 ADD SWAP1 PUSH2 0x2CD SWAP2 SWAP1 PUSH2 0xA4F JUMP JUMPDEST PUSH2 0x30C JUMPI PUSH1 0x40 MLOAD PUSH32 0x8C379A000000000000000000000000000000000000000000000000000000000 DUP2 MSTORE PUSH1 0x4 ADD PUSH2 0x303 SWAP1 PUSH2 0xAC8 JUMP JUMPDEST PUSH1 0x40 MLOAD DUP1 SWAP2 SUB SWAP1 REVERT JUMPDEST DUP1 PUSH1 0x0 ADD PUSH1 0x0 SWAP1 SLOAD SWAP1 PUSH2 0x100 EXP SWAP1 DIV PUSH20 0xFFFFFFFFFFFFFFFFFFFFFFFFFFFFFFFFFFFFFFFF AND PUSH20 0xFFFFFFFFFFFFFFFFFFFFFFFFFFFFFFFFFFFFFFFF AND PUSH2 0x8FC CALLVALUE SWAP1 DUP2 ISZERO MUL SWAP1 PUSH1 0x40 MLOAD PUSH1 0x0 PUSH1 0x40 MLOAD DUP1 DUP4 SUB DUP2 DUP6 DUP9 DUP9 CALL SWAP4 POP POP POP POP ISZERO DUP1 ISZERO PUSH2 0x376 JUMPI RETURNDATASIZE PUSH1 0x0 DUP1 RETURNDATACOPY RETURNDATASIZE PUSH1 0x0 REVERT JUMPDEST POP POP POP JUMP JUMPDEST PUSH1 0x2 SLOAD DUP2 JUMP JUMPDEST PUSH1 0x1 PUSH1 0x20 MSTORE DUP1 PUSH1 0x0 MSTORE PUSH1 0x40 PUSH1 0x0 KECCAK256 PUSH1 0x0 SWAP2 POP SWAP1 POP DUP1 PUSH1 0x0 ADD PUSH1 0x0 SWAP1 SLOAD SWAP1 PUSH2 0x100 EXP SWAP1 DIV PUSH20 0xFFFFFFFFFFFFFFFFFFFFFFFFFFFFFFFFFFFFFFFF AND SWAP1 DUP1 PUSH1 0x1 ADD SLOAD SWAP1 DUP1 PUSH1 0x2 ADD SLOAD SWAP1 DUP1 PUSH1 0x3 ADD PUSH1 0x0 SWAP1 SLOAD SWAP1 PUSH2 0x100 EXP SWAP1 DIV PUSH1 0xFF AND SWAP1 POP DUP5 JUMP JUMPDEST DUP2 PUSH1 0x0 DUP1 SLOAD SWAP1 PUSH2 0x100 EXP SWAP1 DIV PUSH20 0xFFFFFFFFFFFFFFFFFFFFFFFFFFFFFFFFFFFFFFFF AND PUSH20 0xFFFFFFFFFFFFFFFFFFFFFFFFFFFFFFFFFFFFFFFF AND PUSH4 0x70A08231 CALLER PUSH1 0x40 MLOAD DUP3 PUSH4 0xFFFFFFFF AND PUSH1 0xE0 SHL DUP2 MSTORE PUSH1 0x4 ADD PUSH2 0x438 SWAP2 SWAP1 PUSH2 0xAE8 JUMP JUMPDEST PUSH1 0x20 PUSH1 0x40 MLOAD DUP1 DUP4 SUB DUP2 DUP7 GAS STATICCALL ISZERO DUP1 ISZERO PUSH2 0x455 JUMPI RETURNDATASIZE PUSH1 0x0 DUP1 RETURNDATACOPY RETURNDATASIZE PUSH1 0x0 REVERT JUMPDEST POP POP POP POP PUSH1 0x40 MLOAD RETURNDATASIZE PUSH1 0x1F NOT PUSH1 0x1F DUP3 ADD AND DUP3 ADD DUP1 PUSH1 0x40 MSTORE POP DUP2 ADD SWAP1 PUSH2 0x479 SWAP2 SWAP1 PUSH2 0xB18 JUMP JUMPDEST LT ISZERO PUSH2 0x4BA JUMPI PUSH1 0x40 MLOAD PUSH32 0x8C379A000000000000000000000000000000000000000000000000000000000 DUP2 MSTORE PUSH1 0x4 ADD PUSH2 0x4B1 SWAP1 PUSH2 0xB91 JUMP JUMPDEST PUSH1 0x40 MLOAD DUP1 SWAP2 SUB SWAP1 REVERT JUMPDEST DUP2 PUSH1 0x0 DUP1 SLOAD SWAP1 PUSH2 0x100 EXP SWAP1 DIV PUSH20 0xFFFFFFFFFFFFFFFFFFFFFFFFFFFFFFFFFFFFFFFF AND PUSH20 0xFFFFFFFFFFFFFFFFFFFFFFFFFFFFFFFFFFFFFFFF AND PUSH4 0xDD62ED3E CALLER ADDRESS PUSH1 0x40 MLOAD DUP4 PUSH4 0xFFFFFFFF AND PUSH1 0xE0 SHL DUP2 MSTORE PUSH1 0x4 ADD PUSH2 0x516 SWAP3 SWAP2 SWAP1 PUSH2 0xBB1 JUMP JUMPDEST PUSH1 0x20 PUSH1 0x40 MLOAD DUP1 DUP4 SUB DUP2 DUP7 GAS STATICCALL ISZERO DUP1 ISZERO PUSH2 0x533 JUMPI RETURNDATASIZE PUSH1 0x0 DUP1 RETURNDATACOPY RETURNDATASIZE PUSH1 0x0 REVERT JUMPDEST POP POP POP POP PUSH1 0x40 MLOAD RETURNDATASIZE PUSH1 0x1F NOT PUSH1 0x1F DUP3 ADD AND DUP3 ADD DUP1 PUSH1 0x40 MSTORE POP DUP2 ADD SWAP1 PUSH2 0x557 SWAP2 SWAP1 PUSH2 0xB18 JUMP JUMPDEST LT ISZERO PUSH2 0x598 JUMPI PUSH1 0x40 MLOAD PUSH32 0x8C379A000000000000000000000000000000000000000000000000000000000 DUP2 MSTORE PUSH1 0x4 ADD PUSH2 0x58F SWAP1 PUSH2 0xC26 JUMP JUMPDEST PUSH1 0x40 MLOAD DUP1 SWAP2 SUB SWAP1 REVERT JUMPDEST PUSH1 0x40 MLOAD DUP1 PUSH1 0x80 ADD PUSH1 0x40 MSTORE DUP1 CALLER PUSH20 0xFFFFFFFFFFFFFFFFFFFFFFFFFFFFFFFFFFFFFFFF AND DUP2 MSTORE PUSH1 0x20 ADD DUP4 DUP2 MSTORE PUSH1 0x20 ADD DUP3 DUP2 MSTORE PUSH1 0x20 ADD PUSH1 0x1 ISZERO ISZERO DUP2 MSTORE POP PUSH1 0x1 PUSH1 0x0 PUSH1 0x2 SLOAD DUP2 MSTORE PUSH1 0x20 ADD SWAP1 DUP2 MSTORE PUSH1 0x20 ADD PUSH1 0x0 KECCAK256 PUSH1 0x0 DUP3 ADD MLOAD DUP2 PUSH1 0x0 ADD PUSH1 0x0 PUSH2 0x100 EXP DUP2 SLOAD DUP2 PUSH20 0xFFFFFFFFFFFFFFFFFFFFFFFFFFFFFFFFFFFFFFFF MUL NOT AND SWAP1 DUP4 PUSH20 0xFFFFFFFFFFFFFFFFFFFFFFFFFFFFFFFFFFFFFFFF AND MUL OR SWAP1 SSTORE POP PUSH1 0x20 DUP3 ADD MLOAD DUP2 PUSH1 0x1 ADD SSTORE PUSH1 0x40 DUP3 ADD MLOAD DUP2 PUSH1 0x2 ADD SSTORE PUSH1 0x60 DUP3 ADD MLOAD DUP2 PUSH1 0x3 ADD PUSH1 0x0 PUSH2 0x100 EXP DUP2 SLOAD DUP2 PUSH1 0xFF MUL NOT AND SWAP1 DUP4 ISZERO ISZERO MUL OR SWAP1 SSTORE POP SWAP1 POP POP PUSH1 0x2 PUSH1 0x0 DUP2 SLOAD DUP1 SWAP3 SWAP2 SWAP1 PUSH2 0x678 SWAP1 PUSH2 0xC46 JUMP JUMPDEST SWAP2 SWAP1 POP SSTORE POP POP POP JUMP JUMPDEST PUSH1 0x0 DUP1 SLOAD SWAP1 PUSH2 0x100 EXP SWAP1 DIV PUSH20 0xFFFFFFFFFFFFFFFFFFFFFFFFFFFFFFFFFFFFFFFF AND DUP2 JUMP JUMPDEST PUSH1 0x0 DUP1 REVERT JUMPDEST PUSH1 0x0 DUP2 SWAP1 POP SWAP2 SWAP1 POP JUMP JUMPDEST PUSH2 0x6BD DUP2 PUSH2 0x6AA JUMP JUMPDEST DUP2 EQ PUSH2 0x6C8 JUMPI PUSH1 0x0 DUP1 REVERT JUMPDEST POP JUMP JUMPDEST PUSH1 0x0 DUP2 CALLDATALOAD SWAP1 POP PUSH2 0x6DA DUP2 PUSH2 0x6B4 JUMP JUMPDEST SWAP3 SWAP2 POP POP JUMP JUMPDEST PUSH1 0x0 PUSH1 0x20 DUP3 DUP5 SUB SLT ISZERO PUSH2 0x6F6 JUMPI PUSH2 0x6F5 PUSH2 0x6A5 JUMP JUMPDEST JUMPDEST PUSH1 0x0 PUSH2 0x704 DUP5 DUP3 DUP6 ADD PUSH2 0x6CB JUMP JUMPDEST SWAP2 POP POP SWAP3 SWAP2 POP POP JUMP JUMPDEST PUSH2 0x716 DUP2 PUSH2 0x6AA JUMP JUMPDEST DUP3 MSTORE POP POP JUMP JUMPDEST PUSH1 0x0 PUSH1 0x20 DUP3 ADD SWAP1 POP PUSH2 0x731 PUSH1 0x0 DUP4 ADD DUP5 PUSH2 0x70D JUMP JUMPDEST SWAP3 SWAP2 POP POP JUMP JUMPDEST PUSH1 0x0 PUSH20 0xFFFFFFFFFFFFFFFFFFFFFFFFFFFFFFFFFFFFFFFF DUP3 AND SWAP1 POP SWAP2 SWAP1 POP JUMP JUMPDEST PUSH1 0x0 PUSH2 0x762 DUP3 PUSH2 0x737 JUMP JUMPDEST SWAP1 POP SWAP2 SWAP1 POP JUMP JUMPDEST PUSH2 0x772 DUP2 PUSH2 0x757 JUMP JUMPDEST DUP3 MSTORE POP POP JUMP JUMPDEST PUSH1 0x0 DUP2 ISZERO ISZERO SWAP1 POP SWAP2 SWAP1 POP JUMP JUMPDEST PUSH2 0x78D DUP2 PUSH2 0x778 JUMP JUMPDEST DUP3 MSTORE POP POP JUMP JUMPDEST PUSH1 0x0 PUSH1 0x80 DUP3 ADD SWAP1 POP PUSH2 0x7A8 PUSH1 0x0 DUP4 ADD DUP8 PUSH2 0x769 JUMP JUMPDEST PUSH2 0x7B5 PUSH1 0x20 DUP4 ADD DUP7 PUSH2 0x70D JUMP JUMPDEST PUSH2 0x7C2 PUSH1 0x40 DUP4 ADD DUP6 PUSH2 0x70D JUMP JUMPDEST PUSH2 0x7CF PUSH1 0x60 DUP4 ADD DUP5 PUSH2 0x784 JUMP JUMPDEST SWAP6 SWAP5 POP POP POP POP POP JUMP JUMPDEST PUSH1 0x0 DUP1 PUSH1 0x40 DUP4 DUP6 SUB SLT ISZERO PUSH2 0x7EF JUMPI PUSH2 0x7EE PUSH2 0x6A5 JUMP JUMPDEST JUMPDEST PUSH1 0x0 PUSH2 0x7FD DUP6 DUP3 DUP7 ADD PUSH2 0x6CB JUMP JUMPDEST SWAP3 POP POP PUSH1 0x20 PUSH2 0x80E DUP6 DUP3 DUP7 ADD PUSH2 0x6CB JUMP JUMPDEST SWAP2 POP POP SWAP3 POP SWAP3 SWAP1 POP JUMP JUMPDEST PUSH1 0x0 DUP2 SWAP1 POP SWAP2 SWAP1 POP JUMP JUMPDEST PUSH1 0x0 PUSH2 0x83D PUSH2 0x838 PUSH2 0x833 DUP5 PUSH2 0x737 JUMP JUMPDEST PUSH2 0x818 JUMP JUMPDEST PUSH2 0x737 JUMP JUMPDEST SWAP1 POP SWAP2 SWAP1 POP JUMP JUMPDEST PUSH1 0x0 PUSH2 0x84F DUP3 PUSH2 0x822 JUMP JUMPDEST SWAP1 POP SWAP2 SWAP1 POP JUMP JUMPDEST PUSH1 0x0 PUSH2 0x861 DUP3 PUSH2 0x844 JUMP JUMPDEST SWAP1 POP SWAP2 SWAP1 POP JUMP JUMPDEST PUSH2 0x871 DUP2 PUSH2 0x856 JUMP JUMPDEST DUP3 MSTORE POP POP JUMP JUMPDEST PUSH1 0x0 PUSH1 0x20 DUP3 ADD SWAP1 POP PUSH2 0x88C PUSH1 0x0 DUP4 ADD DUP5 PUSH2 0x868 JUMP JUMPDEST SWAP3 SWAP2 POP POP JUMP JUMPDEST PUSH1 0x0 DUP3 DUP3 MSTORE PUSH1 0x20 DUP3 ADD SWAP1 POP SWAP3 SWAP2 POP POP JUMP JUMPDEST PUSH32 0x496E616374697665206C697374696E6700000000000000000000000000000000 PUSH1 0x0 DUP3 ADD MSTORE POP JUMP JUMPDEST PUSH1 0x0 PUSH2 0x8D9 PUSH1 0x10 DUP4 PUSH2 0x892 JUMP JUMPDEST SWAP2 POP PUSH2 0x8E4 DUP3 PUSH2 0x8A3 JUMP JUMPDEST PUSH1 0x20 DUP3 ADD SWAP1 POP SWAP2 SWAP1 POP JUMP JUMPDEST PUSH1 0x0 PUSH1 0x20 DUP3 ADD SWAP1 POP DUP2 DUP2 SUB PUSH1 0x0 DUP4 ADD MSTORE PUSH2 0x908 DUP2 PUSH2 0x8CC JUMP JUMPDEST SWAP1 POP SWAP2 SWAP1 POP JUMP JUMPDEST PUSH32 0x4E487B7100000000000000000000000000000000000000000000000000000000 PUSH1 0x0 MSTORE PUSH1 0x11 PUSH1 0x4 MSTORE PUSH1 0x24 PUSH1 0x0 REVERT JUMPDEST PUSH1 0x0 PUSH2 0x949 DUP3 PUSH2 0x6AA JUMP JUMPDEST SWAP2 POP PUSH2 0x954 DUP4 PUSH2 0x6AA JUMP JUMPDEST SWAP3 POP DUP3 DUP3 MUL PUSH2 0x962 DUP2 PUSH2 0x6AA JUMP JUMPDEST SWAP2 POP DUP3 DUP3 DIV DUP5 EQ DUP4 ISZERO OR PUSH2 0x979 JUMPI PUSH2 0x978 PUSH2 0x90F JUMP JUMPDEST JUMPDEST POP SWAP3 SWAP2 POP POP JUMP JUMPDEST PUSH32 0x496E73756666696369656E742045544800000000000000000000000000000000 PUSH1 0x0 DUP3 ADD MSTORE POP JUMP JUMPDEST PUSH1 0x0 PUSH2 0x9B6 PUSH1 0x10 DUP4 PUSH2 0x892 JUMP JUMPDEST SWAP2 POP PUSH2 0x9C1 DUP3 PUSH2 0x980 JUMP JUMPDEST PUSH1 0x20 DUP3 ADD SWAP1 POP SWAP2 SWAP1 POP JUMP JUMPDEST PUSH1 0x0 PUSH1 0x20 DUP3 ADD SWAP1 POP DUP2 DUP2 SUB PUSH1 0x0 DUP4 ADD MSTORE PUSH2 0x9E5 DUP2 PUSH2 0x9A9 JUMP JUMPDEST SWAP1 POP SWAP2 SWAP1 POP JUMP JUMPDEST PUSH1 0x0 PUSH1 0x60 DUP3 ADD SWAP1 POP PUSH2 0xA01 PUSH1 0x0 DUP4 ADD DUP7 PUSH2 0x769 JUMP JUMPDEST PUSH2 0xA0E PUSH1 0x20 DUP4 ADD DUP6 PUSH2 0x769 JUMP JUMPDEST PUSH2 0xA1B PUSH1 0x40 DUP4 ADD DUP5 PUSH2 0x70D JUMP JUMPDEST SWAP5 SWAP4 POP POP POP POP JUMP JUMPDEST PUSH2 0xA2C DUP2 PUSH2 0x778 JUMP JUMPDEST DUP2 EQ PUSH2 0xA37 JUMPI PUSH1 0x0 DUP1 REVERT JUMPDEST POP JUMP JUMPDEST PUSH1 0x0 DUP2 MLOAD SWAP1 POP PUSH2 0xA49 DUP2 PUSH2 0xA23 JUMP JUMPDEST SWAP3 SWAP2 POP POP JUMP JUMPDEST PUSH1 0x0 PUSH1 0x20 DUP3 DUP5 SUB SLT ISZERO PUSH2 0xA65 JUMPI PUSH2 0xA64 PUSH2 0x6A5 JUMP JUMPDEST JUMPDEST PUSH1 0x0 PUSH2 0xA73 DUP5 DUP3 DUP6 ADD PUSH2 0xA3A JUMP JUMPDEST SWAP2 POP POP SWAP3 SWAP2 POP POP JUMP JUMPDEST PUSH32 0x5472616E73666572206661696C65640000000000000000000000000000000000 PUSH1 0x0 DUP3 ADD MSTORE POP JUMP JUMPDEST PUSH1 0x0 PUSH2 0xAB2 PUSH1 0xF DUP4 PUSH2 0x892 JUMP JUMPDEST SWAP2 POP PUSH2 0xABD DUP3 PUSH2 0xA7C JUMP JUMPDEST PUSH1 0x20 DUP3 ADD SWAP1 POP SWAP2 SWAP1 POP JUMP JUMPDEST PUSH1 0x0 PUSH1 0x20 DUP3 ADD SWAP1 POP DUP2 DUP2 SUB PUSH1 0x0 DUP4 ADD MSTORE PUSH2 0xAE1 DUP2 PUSH2 0xAA5 JUMP JUMPDEST SWAP1 POP SWAP2 SWAP1 POP JUMP JUMPDEST PUSH1 0x0 PUSH1 0x20 DUP3 ADD SWAP1 POP PUSH2 0xAFD PUSH1 0x0 DUP4 ADD DUP5 PUSH2 0x769 JUMP JUMPDEST SWAP3 SWAP2 POP POP JUMP JUMPDEST PUSH1 0x0 DUP2 MLOAD SWAP1 POP PUSH2 0xB12 DUP2 PUSH2 0x6B4 JUMP JUMPDEST SWAP3 SWAP2 POP POP JUMP JUMPDEST PUSH1 0x0 PUSH1 0x20 DUP3 DUP5 SUB SLT ISZERO PUSH2 0xB2E JUMPI PUSH2 0xB2D PUSH2 0x6A5 JUMP JUMPDEST JUMPDEST PUSH1 0x0 PUSH2 0xB3C DUP5 DUP3 DUP6 ADD PUSH2 0xB03 JUMP JUMPDEST SWAP2 POP POP SWAP3 SWAP2 POP POP JUMP JUMPDEST PUSH32 0x496E73756666696369656E7420746F6B656E7300000000000000000000000000 PUSH1 0x0 DUP3 ADD MSTORE POP JUMP JUMPDEST PUSH1 0x0 PUSH2 0xB7B PUSH1 0x13 DUP4 PUSH2 0x892 JUMP JUMPDEST SWAP2 POP PUSH2 0xB86 DUP3 PUSH2 0xB45 JUMP JUMPDEST PUSH1 0x20 DUP3 ADD SWAP1 POP SWAP2 SWAP1 POP JUMP JUMPDEST PUSH1 0x0 PUSH1 0x20 DUP3 ADD SWAP1 POP DUP2 DUP2 SUB PUSH1 0x0 DUP4 ADD MSTORE PUSH2 0xBAA DUP2 PUSH2 0xB6E JUMP JUMPDEST SWAP1 POP SWAP2 SWAP1 POP JUMP JUMPDEST PUSH1 0x0 PUSH1 0x40 DUP3 ADD SWAP1 POP PUSH2 0xBC6 PUSH1 0x0 DUP4 ADD DUP6 PUSH2 0x769 JUMP JUMPDEST PUSH2 0xBD3 PUSH1 0x20 DUP4 ADD DUP5 PUSH2 0x769 JUMP JUMPDEST SWAP4 SWAP3 POP POP POP JUMP JUMPDEST PUSH32 0x4E6F7420617070726F7665640000000000000000000000000000000000000000 PUSH1 0x0 DUP3 ADD MSTORE POP JUMP JUMPDEST PUSH1 0x0 PUSH2 0xC10 PUSH1 0xC DUP4 PUSH2 0x892 JUMP JUMPDEST SWAP2 POP PUSH2 0xC1B DUP3 PUSH2 0xBDA JUMP JUMPDEST PUSH1 0x20 DUP3 ADD SWAP1 POP SWAP2 SWAP1 POP JUMP JUMPDEST PUSH1 0x0 PUSH1 0x20 DUP3 ADD SWAP1 POP DUP2 DUP2 SUB PUSH1 0x0 DUP4 ADD MSTORE PUSH2 0xC3F DUP2 PUSH2 0xC03 JUMP JUMPDEST SWAP1 POP SWAP2 SWAP1 POP JUMP JUMPDEST PUSH1 0x0 PUSH2 0xC51 DUP3 PUSH2 0x6AA JUMP JUMPDEST SWAP2 POP PUSH32 0xFFFFFFFFFFFFFFFFFFFFFFFFFFFFFFFFFFFFFFFFFFFFFFFFFFFFFFFFFFFFFFFF DUP3 SUB PUSH2 0xC83 JUMPI PUSH2 0xC82 PUSH2 0x90F JUMP JUMPDEST JUMPDEST PUSH1 0x1 DUP3 ADD SWAP1 POP SWAP2 SWAP1 POP JUMP INVALID LOG2 PUSH5 0x6970667358 0x22 SLT KECCAK256 0xA9 0x4F 0xE4 PUSH32 0x880F1FC0C57B29D52264048FF11E965769253D22CF14FFC1C3105BDD64736F6C PUSH4 0x43000814 STOP CALLER "},"methodIdentifiers":{"buyTokens(uint256)":"3610724e","listTokens(uint256,uint256)":"e30e5ae9","listings(uint256)":"de74e57b","nextListingId()":"aaccf1ec","token()":"fc0c546a"}}}}}