{
  "_format": "hh-sol-artifact-1",
  "contractName": "Marketplace",
  "sourceName": "contracts/Marketplace.sol",
  "abi": [
    {
      "inputs": [
        {
          "internalType": "address",
          "name": "tokenAddress",
          "type": "address"
        }
      ],
      "stateMutability": "nonpayable",
      "type": "constructor"
    },
    {
      "inputs": [
        {
          "internalType": "uint256",
          "name": "listingId",
          "type": "uint256"
        }
      ],
      "name": "buyTokens",
      "outputs": [],
      "stateMutability": "payable",
      "type": "function"
    },
    {
      "inputs": [
        {
          "internalType": "uint256",
          "name": "amount",
          "type": "uint256"
        },
        {
          "internalType": "uint256",
          "name": "price",
          "type": "uint256"
        }
      ],
      "name": "listTokens",
      "outputs": [],
      "stateMutability": "nonpayable",
      "type": "function"
    },
    {
      "inputs": [
        {
          "internalType": "uint256",
          "name": "",
          "type": "uint256"
        }
      ],
      "name": "listings",
      "outputs": [
        {
          "internalType": "address",
          "name": "seller",
          "type": "address"
        },
        {
          "internalType": "uint256",
          "name": "amount",
          "type": "uint256"
        },
        {
          "internalType": "uint256",
          "name": "price",
          "type": "uint256"
        },
        {
          "internalType": "bool",
          "name": "active",
          "type": "bool"
        }
      ],
      "stateMutability": "view",
      "type": "function"
    },
    {
      "inputs": [],
      "name": "nextListingId",
      "outputs": [
        {
          "internalType": "uint256",
          "name": "",
          "type": "uint256"
        }
      ],
      "stateMutability": "view",
      "type": "function"
    },
    {
      "inputs": [],
      "name": "token",
      "outputs": [
        {
          "internalType": "contract CarbonCreditToken",
          "name": "",
          "type": "address"
        }
      ],
      "stateMutability": "view",
      "type": "function"
    }
  ],
  "bytecode": "0x608060405234801561001057600080fd5b50604051610ddb380380610ddb833981810160405281019061003291906100db565b806000806101000a81548173ffffffffffffffffffffffffffffffffffffffff021916908373ffffffffffffffffffffffffffffffffffffffff16021790555050610108565b600080fd5b600073ffffffffffffffffffffffffffffffffffffffff82169050919050565b60006100a88261007d565b9050919050565b6100b88161009d565b81146100c357600080fd5b50565b6000815190506100d5816100af565b92915050565b6000602082840312156100f1576100f0610078565b5b60006100ff848285016100c6565b91505092915050565b610cc4806101176000396000f3fe60806040526004361061004a5760003560e01c80633610724e1461004f578063aaccf1ec1461006b578063de74e57b14610096578063e30e5ae9146100d6578063fc0c546a146100ff575b600080fd5b610069600480360381019061006491906106e0565b61012a565b005b34801561007757600080fd5b5061008061037b565b60405161008d919061071c565b60405180910390f35b3480156100a257600080fd5b506100bd60048036038101906100b891906106e0565b610381565b6040516100cd9493929190610793565b60405180910390f35b3480156100e257600080fd5b506100fd60048036038101906100f891906107d8565b6103de565b005b34801561010b57600080fd5b50610114610681565b6040516101219190610877565b60405180910390f35b60006001600083815260200190815260200160002090508060030160009054906101000a900460ff16610192576040517f08c379a0000000000000000000000000000000000000000000000000000000008152600401610189906108ef565b60405180910390fd5b806001015481600201546101a6919061093e565b3410156101e8576040517f08c379a00000000000000000000000000000000000000000000000000000000081526004016101df906109cc565b60405180910390fd5b60008160030160006101000a81548160ff02191690831515021790555060008054906101000a900473ffffffffffffffffffffffffffffffffffffffff1673ffffffffffffffffffffffffffffffffffffffff166323b872dd8260000160009054906101000a900473ffffffffffffffffffffffffffffffffffffffff163384600101546040518463ffffffff1660e01b815260040161028a939291906109ec565b6020604051808303816000875af11580156102a9573d6000803e3d6000fd5b505050506040513d601f19601f820116820180604052508101906102cd9190610a4f565b61030c576040517f08c379a000000000000000000000000000000000000000000000000000000000815260040161030390610ac8565b60405180910390fd5b8060000160009054906101000a900473ffffffffffffffffffffffffffffffffffffffff1673ffffffffffffffffffffffffffffffffffffffff166108fc349081150290604051600060405180830381858888f19350505050158015610376573d6000803e3d6000fd5b505050565b60025481565b60016020528060005260406000206000915090508060000160009054906101000a900473ffffffffffffffffffffffffffffffffffffffff16908060010154908060020154908060030160009054906101000a900460ff16905084565b8160008054906101000a900473ffffffffffffffffffffffffffffffffffffffff1673ffffffffffffffffffffffffffffffffffffffff166370a08231336040518263ffffffff1660e01b81526004016104389190610ae8565b602060405180830381865afa158015610455573d6000803e3d6000fd5b505050506040513d601f19601f820116820180604052508101906104799190610b18565b10156104ba576040517f08c379a00000000000000000000000000000000000000000000000000000000081526004016104b190610b91565b60405180910390fd5b8160008054906101000a900473ffffffffffffffffffffffffffffffffffffffff1673ffffffffffffffffffffffffffffffffffffffff1663dd62ed3e33306040518363ffffffff1660e01b8152600401610516929190610bb1565b602060405180830381865afa158015610533573d6000803e3d6000fd5b505050506040513d601f19601f820116820180604052508101906105579190610b18565b1015610598576040517f08c379a000000000000000000000000000000000000000000000000000000000815260040161058f90610c26565b60405180910390fd5b60405180608001604052803373ffffffffffffffffffffffffffffffffffffffff1681526020018381526020018281526020016001151581525060016000600254815260200190815260200160002060008201518160000160006101000a81548173ffffffffffffffffffffffffffffffffffffffff021916908373ffffffffffffffffffffffffffffffffffffffff160217905550602082015181600101556040820151816002015560608201518160030160006101000a81548160ff0219169083151502179055509050506002600081548092919061067890610c46565b91905055505050565b60008054906101000a900473ffffffffffffffffffffffffffffffffffffffff1681565b600080fd5b6000819050919050565b6106bd816106aa565b81146106c857600080fd5b50565b6000813590506106da816106b4565b92915050565b6000602082840312156106f6576106f56106a5565b5b6000610704848285016106cb565b91505092915050565b610716816106aa565b82525050565b6000602082019050610731600083018461070d565b92915050565b600073ffffffffffffffffffffffffffffffffffffffff82169050919050565b600061076282610737565b9050919050565b61077281610757565b82525050565b60008115159050919050565b61078d81610778565b82525050565b60006080820190506107a86000830187610769565b6107b5602083018661070d565b6107c2604083018561070d565b6107cf6060830184610784565b95945050505050565b600080604083850312156107ef576107ee6106a5565b5b60006107fd858286016106cb565b925050602061080e858286016106cb565b9150509250929050565b6000819050919050565b600061083d61083861083384610737565b610818565b610737565b9050919050565b600061084f82610822565b9050919050565b600061086182610844565b9050919050565b61087181610856565b82525050565b600060208201905061088c6000830184610868565b92915050565b600082825260208201905092915050565b7f496e616374697665206c697374696e6700000000000000000000000000000000600082015250565b60006108d9601083610892565b91506108e4826108a3565b602082019050919050565b60006020820190508181036000830152610908816108cc565b9050919050565b7f4e487b7100000000000000000000000000000000000000000000000000000000600052601160045260246000fd5b6000610949826106aa565b9150610954836106aa565b9250828202610962816106aa565b915082820484148315176109795761097861090f565b5b5092915050565b7f496e73756666696369656e742045544800000000000000000000000000000000600082015250565b60006109b6601083610892565b91506109c182610980565b602082019050919050565b600060208201905081810360008301526109e5816109a9565b9050919050565b6000606082019050610a016000830186610769565b610a0e6020830185610769565b610a1b604083018461070d565b949350505050565b610a2c81610778565b8114610a3757600080fd5b50565b600081519050610a4981610a23565b92915050565b600060208284031215610a6557610a646106a5565b5b6000610a7384828501610a3a565b91505092915050565b7f5472616e73666572206661696c65640000000000000000000000000000000000600082015250565b6000610ab2600f83610892565b9150610abd82610a7c565b602082019050919050565b60006020820190508181036000830152610ae181610aa5565b9050919050565b6000602082019050610afd6000830184610769565b92915050565b600081519050610b12816106b4565b92915050565b600060208284031215610b2e57610b2d6106a5565b5b6000610b3c84828501610b03565b91505092915050565b7f496e73756666696369656e7420746f6b656e7300000000000000000000000000600082015250565b6000610b7b601383610892565b9150610b8682610b45565b602082019050919050565b60006020820190508181036000830152610baa81610b6e565b9050919050565b6000604082019050610bc66000830185610769565b610bd36020830184610769565b9392505050565b7f4e6f7420617070726f7665640000000000000000000000000000000000000000600082015250565b6000610c10600c83610892565b9150610c1b82610bda565b602082019050919050565b60006020820190508181036000830152610c3f81610c03565b9050919050565b6000610c51826106aa565b91507fffffffffffffffffffffffffffffffffffffffffffffffffffffffffffffffff8203610c8357610c8261090f565b5b60018201905091905056fea2646970667358221220a94fe47f880f1fc0c57b29d52264048ff11e965769253d22cf14ffc1c3105bdd64736f6c63430008140033",
  "linkReferences": {},
  "deployedLinkReferences": {}
}